:020000040800F2
:10000000000003201D0A0008190A0008190A000848
:10001000190A0008190A0008190A0008000000005F
:10002000000000000000000000000000190A0008A5
:10003000190A000800000000190A0008190A00083F
:10004000190A0008190A0008190A0008190A000804
:10005000190A0008190A0008190A0008190A0008F4
:10006000190A0008190A0008190A0008190A0008E4
:10007000190A0008190A0008190A0008190A0008D4
:10008000190A0008190A0008190A0008190A0008C4
:10009000190A0008190A0008190A0008190A0008B4
:1000A000190A0008190A0008190A0008190A0008A4
:1000B000190A0008190A0008190A0008190A000894
:1000C000190A0008190A0008190A0008190A000884
:1000D000190A0008190A0008190A0008190A000874
:1000E000190A0008190A0008190A0008190A000864
:1000F000190A0008190A0008190A0008190A000854
:10010000190A0008190A0008190A0008190A000843
:10011000910C00089D0C0008190A0008190A000833
:10012000190A0008190A0008190A0008190A000823
:10013000190A0008190A0008190A0008190A000813
:10014000190A0008190A0008190A0008190A000803
:10015000190A0008190A0008190A0008190A0008F3
:10016000190A0008190A0008190A0008190A0008E3
:10017000190A0008190A0008190A000800000000FE
:10018000190A0008190A0008190A0008190A0008C3
:10019000190A0008190A0008190A0008190A0008B3
:0C01A000190A0008190A0008190A0008D2
:1001C00080F0004002E000BF81F0004142001FBF0C
:1001D0005FEA410392EA030F7FEA226C7FEA236C15
:1001E0006AD04FEA1262D2EB1363C1BFD21841400A
:1001F00048404140B8BF5B42192B88BF704710F0A0
:10020000004F40F4000020F07F4018BF404211F042
:10021000004F41F4000121F07F4118BF494292EAAA
:10022000030F3FD0A2F1010241FA03FC10EB0C00D6
:10023000C3F1200301FA03F100F0004302D5494263
:1002400060EB4000B0F5000F13D3B0F1807F06D310
:1002500040084FEA310102F10102FE2A51D2B1F108
:10026000004F40EBC25008BF20F0010040EA0300FD
:100270007047490040EB0000013A28BFB0F5000F7D
:10028000EDD2B0FA80FCACF1080CB2EB0C0200FA33
:100290000CF0AABF00EBC25052421843BCBFD04082
:1002A0001843704792F0000F81F4000106BF80F4FC
:1002B00000000132013BB5E74FEA41037FEA226CBF
:1002C00018BF7FEA236C21D092EA030F04D092F08A
:1002D000000F08BF0846704790EA010F1CBF0020BE
:1002E000704712F07F4F04D1400028BF40F000401B
:1002F000704712F100723CBF00F50000704700F03B
:10030000004343F0FE4040F4000070477FEA226261
:1003100016BF08467FEA23630146420206BF5FEA32
:10032000412390EA010F40F4800070474FF0000332
:1003300004E000BF10F0004348BF40425FEA000CF9
:1003400008BF704743F0964301464FF000001CE0A1
:1003500050EA010208BF70474FF000030AE000BFF7
:1003600050EA010208BF704711F0004302D5404235
:1003700061EB41015FEA010C02BF844601460020A7
:1003800043F0B64308BFA3F18053A3F50003BCFAC2
:100390008CF2083AA3EBC25310DB01FA02FC63446F
:1003A00000FA02FCC2F12002BCF1004F20FA02F276
:1003B00043EB020008BF20F00100704702F1200269
:1003C00001FA02FCC2F1200250EA4C0021FA02F2CA
:1003D00043EB020008BF20EADC7070474FF0FF0CCF
:1003E0001CEAD0521EBF1CEAD15392EA0C0F93EACA
:1003F0000C0F6FD01A4480EA010C400218BF5FEA6C
:1004000041211ED04FF0006343EA501043EA5111DE
:10041000A0FB01310CF00040B1F5000F3EBF4900D8
:1004200041EAD3715B0040EA010062F17F02FD2ADC
:100430001DD8B3F1004F40EBC25008BF20F00100BF
:10044000704790F0000F0CF0004C08BF49024CEAD6
:10045000502040EA51207F3AC2BFD2F1FF0340EA68
:10046000C250704740F400004FF00003013A5DDCD9
:1004700012F1190FDCBF00F000407047C2F100021A
:10048000410021FA02F1C2F1200200FA02FC5FEA07
:10049000310040F1000053EA4C0308BF20EADC7051
:1004A000704792F0000F00F0004C02BF400010F4C3
:1004B000000F013AF9D040EA0C0093F0000F01F070
:1004C000004C02BF490011F4000F013BF9D041EA92
:1004D0000C018FE70CEAD15392EA0C0F18BF93EA94
:1004E0000C0F0AD030F0004C18BF31F0004CD8D1BE
:1004F00080EA010000F00040704790F0000F17BF45
:1005000090F0004F084691F0000F91F0004F14D08A
:1005100092EA0C0F01D142020FD193EA0C0F03D1E2
:100520004B0218BF084608D180EA010000F00040E5
:1005300040F0FE4040F40000704740F0FE4040F4C0
:10054000400070474FF0FF0C1CEAD0521EBF1CEA5F
:10055000D15392EA0C0F93EA0C0F69D0A2EB03027D
:1005600080EA010C49024FEA402037D04FF0805317
:1005700043EA111143EA10130CF000408B4238BFDC
:100580005B0042F17D024FF4000C8B4224BF5B1AEA
:1005900040EA0C00B3EB510F24BFA3EB510340EA38
:1005A0005C00B3EB910F24BFA3EB910340EA9C00E6
:1005B000B3EBD10F24BFA3EBD10340EADC001B0156
:1005C00018BF5FEA1C1CE0D1FD2A3FF650AF8B42FA
:1005D00040EBC25008BF20F0010070470CF0004C07
:1005E0004CEA50207F32C2BFD2F1FF0340EAC25032
:1005F000704740F400004FF00003013A37E792F0F3
:10060000000F00F0004C02BF400010F4000F013A50
:10061000F9D040EA0C0093F0000F01F0004C02BF4B
:10062000490011F4000F013BF9D041EA0C0195E7B4
:100630000CEAD15392EA0C0F08D142027FF47DAF4D
:1006400093EA0C0F7FF470AF084676E793EA0C0F3D
:1006500004D14B023FF44CAF08466EE730F0004C3B
:1006600018BF31F0004CCAD130F000427FF45CAFCB
:1006700031F000437FF43CAF5FE700BF42000ED291
:10068000B2F1FE4F0BD34FF09E03B3EB126209D4CD
:100690004FEA002343F0004323FA02F070474FF083
:1006A0000000704712F1610F01D1420202D14FF0F8
:1006B000FF3070474FF00000704700BF000000009F
:1006C00030B490F800F020F007016FF0000C10F04B
:1006D000070491F820F040F048804FF000046FF0DC
:1006E0000700D1E9002391F840F000F1080082FAF8
:1006F0004CF2A4FA8CF283FA4CF3A2FA8CF34BBBC3
:10070000D1E9022382FA4CF200F10800A4FA8CF23B
:1007100083FA4CF3A2FA8CF3E3B9D1E9042382FA09
:100720004CF200F10800A4FA8CF283FA4CF3A2FA1E
:100730008CF37BB9D1E9062301F1200182FA4CF256
:1007400000F10800A4FA8CF283FA4CF3A2FA8CF3BD
:10075000002BC6D0002A04BF04301A4612BAB2FADF
:1007600082F200EBD20030BC7047D1E9002304F0E4
:100770000305C4F100004FEAC50514F0040F91F819
:1007800040F00CFA05F562EA05021CBF63EA0503B6
:1007900062464FF00004AAE70000000000000000DD
:1007A00001F0FF01102A2BDB10F0070F08D010F822
:1007B000013B013A8B422DD010F0070F42B3F6D126
:1007C000F0B441EA012141EA014122F007047FF03F
:1007D00000070023F0E80256083C85EA010586EA96
:1007E000010685FA47F5A3FA87F586FA47F6A5FAD2
:1007F00087F68EB9EED1F0BC01F0FF0102F00702DE
:1008000032B110F8013B013A83EA010313B1F8D188
:100810000020704701387047002D06BF3546033869
:10082000073815F0010F07D1013015F4807F02BFA2
:10083000013015F4C03F0130F0BC0138704700BFF3
:10084000844641EA000313F003036DD1403A41D3DB
:1008500051F8043B40F8043B51F8043B40F8043B9A
:1008600051F8043B40F8043B51F8043B40F8043B8A
:1008700051F8043B40F8043B51F8043B40F8043B7A
:1008800051F8043B40F8043B51F8043B40F8043B6A
:1008900051F8043B40F8043B51F8043B40F8043B5A
:1008A00051F8043B40F8043B51F8043B40F8043B4A
:1008B00051F8043B40F8043B51F8043B40F8043B3A
:1008C00051F8043B40F8043B51F8043B40F8043B2A
:1008D000403ABDD2303211D351F8043B40F8043BCA
:1008E00051F8043B40F8043B51F8043B40F8043B0A
:1008F00051F8043B40F8043B103AEDD20C3205D3DA
:1009000051F8043B40F8043B043AF9D2043208D0D1
:10091000D2071CBF11F8013B00F8013B01D30B8843
:1009200003806046704700BF082A13D38B078DD021
:1009300010F003038AD0C3F10403D21ADB071CBFF3
:1009400011F8013B00F8013B80D331F8023B20F85D
:10095000023B7BE7043AD9D3013A11F8013B00F896
:10096000013BF9D20B7803704B7843708B7883701E
:10097000604670470348044B834202D0034B03B1E7
:100980001847704770050020700500200000000027
:100990000548064B1B1AD90F01EBA301491002D0E1
:1009A000034B03B118477047700500207005002005
:1009B0000000000010B5064C237843B9FFF7DAFFBA
:1009C000044B13B10448AFF300800123237010BD22
:1009D00070050020000000008827000808B5054BBE
:1009E0001BB105490548AFF30080BDE80840FFF79B
:1009F000CFBF00BF0000000074050020882700085A
:100A000008B54FF4E13000F0C5F8024800F004FBEF
:100A1000FBE700BFA0270008FEE700000C4B0D49D4
:100A200003E051F8042B43F8042B0B4A9342F8D30C
:100A30000A4B02E0002243F8042B094A9342F9D3FF
:100A400000F086F800F0DEFBFFF7DAFFFEE700BFFC
:100A500000000020C4270008700500207005002059
:100A6000A408002082B0002301930093344A136845
:100A700043F480331360324B1B6803F4003300935C
:100A8000019B01330193009B1BB9019BB3F5A04F60
:100A9000F1D12B4B1B6813F4003F06D001230093C8
:100AA000009B012B04D002B0704700230093F7E7AE
:100AB000234B1A6C42F080521A6422490A6842F4AD
:100AC00040420A609A689A609A6842F400429A60CA
:100AD0009A6842F4A0529A601B4A5A601A6842F01F
:100AE00080721A60164B1B6813F0007FFAD0154A0B
:100AF000136843F480331360124B5B6813F4803F38
:100B0000FAD0104A136843F4003313600D4B5B684E
:100B100013F4003FFAD00D4B40F205721A60A3F5B2
:100B200080639A6822F003029A609A6842F0020297
:100B30009A60034B9B6803F00C03082BF9D1B2E7D2
:100B40000038024000700040195A4007003C024043
:100B500008B50D4B1A6842F001021A600021996035
:100B60001A6822F0847222F480321A60074A5A60AE
:100B70001A6822F480221A60D960FFF773FF044BD1
:100B80004FF000629A6008BD003802401030002427
:100B900000ED00E0F0B583B00646394B5A6C42F0E8
:100BA00010025A641A6B42F001021A63354C012795
:100BB00001970225009500232A464FF40071204634
:100BC00000F072F80197009500232A464FF48061E7
:100BD000204600F069F807224FF40071204600F02B
:100BE000A9F807224FF48061204600F0A3F8264BB5
:100BF0001868F840FFF79AFB04463001FFF796FBB0
:100C000001462046FFF79EFC0546FFF737FD84B2FC
:100C10002046FFF78FFB01462846FFF7D5FA4FF035
:100C20008341FFF7DBFB2401A4B2FFF727FD14FA91
:100C300080F080B2154B18819A8992B242F400522A
:100C40009A819A8992B222F4805292B29A819A89B8
:100C500092B222F4806292B29A819A8992B242F060
:100C600020029A811A8A92B222F4405292B21A82D7
:100C70009A8992B242F00C029A8103B0F0BD00BF93
:100C80000038024000000240000000200010014037
:100C9000014B1B88704700BF004C0040014B1B8874
:100CA000704700BF005000402DE9F043DDF81C8084
:100CB000089F4FF0000C0AE0C5682E40C660C5686A
:100CC00007FA04FE45EA0E05C5600CF1010CBCF103
:100CD0000F0F2DD84FF0010E0EFA0CFE3EEA010464
:100CE000F3D1D0F800904FEA4C040325A540EE4321
:100CF00029EA05050560056802FA04F945EA0905CF
:100D00000560551E012DD7D88568354085608568FA
:100D100008FA04F945EA09058560456825EA0E05E3
:100D20004560456803FA0CFE45EA0E054560C3E7D9
:100D3000BDE8F0834FF0000C02E030BD0CF1010C77
:100D4000BCF10F0F28D8012303FA0CF38B43F5D124
:100D500030B54FEADC03083350F823400CF0070E9F
:100D60004FEA8E0E0F2505FA0EF524EA050440F829
:100D7000234050F8234002FA0EFE44EA0E0440F8E5
:100D800023400CF1010CBCF10F0FD6D8012303FA5C
:100D90000CF38B43F5D1DCE770470000024A0349AE
:100DA000034800F0C9B800BF04000020B11A0008D1
:100DB000180000200C4B4168994210B5044601D040
:100DC00000F076FEA168094B994202D0204600F05F
:100DD0006FFEE168064B994204D02046BDE8104002
:100DE00000F066BE10BD00BF8C050020F405002099
:100DF0005C0600202DE9F843314A324C3249DFF8D5
:100E0000CC90DFF8CC80334F1160002504232946B5
:100E1000082204F15C00C4E903352F4EA560C4E943
:100E20000055C4E90555656600F046F904F158001F
:100E3000C4E90749C4E90987E66200F00BFA2946CC
:100E4000264B6367082204F1C400C4E91A55C4E9BB
:100E50001E552567C4F8CC50C4F8805000F02CF91A
:100E600004F1680304F1C000C4F88430C4E9229896
:100E7000C4E9247600F0EEF9194BC4F8DC302946B9
:100E800004F596700822C4E93455C4E93855C4F80D
:100E9000D850C4F83451C4F8E85000F00DF904F10A
:100EA000D003C4E93D87C4F8F09004F59470C4F809
:100EB000FC60C4F8EC30BDE8F84300F0CBB900BFEB
:100EC000C40600208C0500209D0D00082910000894
:100ED0004D1000088D100008B11000080900010035
:100EE0001200020010B504460A4800F0B7F9636B1F
:100EF00023B9094B094A1B68626323B1BDE810405E
:100F0000044800F0ADB9FFF775FFBDE81040014897
:100F100000F0A6B9D4060020C4060020B50D0008D4
:100F2000014800F09BB900BFD4060020014800F042
:100F300097B900BFD40600202DE9F843074688463C
:100F400016464FF00009D6E90154013D10D4A3899B
:100F5000012B08D9B4F90E3001332146384602D0AE
:100F6000C04749EA0009013D6B1C04F16804EED159
:100F70003668002EE7D14846BDE8F88370B50546CF
:100F800088B008460C46FFF79BFB224E6A6B059023
:100F900001214318CDE9066104A8022104940393BA
:100FA000AC68019002916AB3636EB4F90C20D90762
:100FB00001D496051FD5900405D442F4005223F4C1
:100FC0000053A2816366990420D401AA21462846D1
:100FD00000F08CFE636EC8B90A25DA0702D4A38933
:100FE0009B0502D5284608B070BDA06D00F038F909
:100FF000284608B070BDA06D00F030F9B4F90C209F
:10100000636ED8E72846FFF76DFFCDE74FF0FF3559
:10101000E3E700BFAC270008024B01461868FFF762
:10102000ADBF00BF1000002010B50C46B1F90E1086
:1010300000F0BCF8002803DB236D0344236510BDDA
:10104000A38923F48053A38110BD00BF2DE9F04193
:101050000C46B1F90C101F46CB05054616460BD4BD
:1010600021F48051A1813B46B4F90E103246284646
:10107000BDE8F04100F0B0B8B4F90E100223002230
:1010800000F07EF8B4F90C10EAE700BF10B50C468A
:10109000B1F90E1000F074F8B4F90C30421C0EBF18
:1010A00023F4805343F480532065A38110BD00BF17
:1010B000B1F90E1000F052B8830730B547D0541E76
:1010C000002A3ED0CAB2034601E0013C39D303F8FE
:1010D000012B9D07F9D1032C2CD9CDB205EB0525A9
:1010E0000F2C05EB054535D9A4F1100222F00F0CA9
:1010F00003F1100EE6444FEA121C1A46C2E90055ED
:10110000C2E9025510327245F8D10CF1010214F017
:101110000C0F03EB021204F00F0C13D0ACF104031C
:1011200023F003030433134442F8045B9342FBD1DE
:101130000CF003042CB1C9B21C4403F8011BA342F8
:10114000FBD130BD64461346002CF4D1F9E70346C9
:101150001446C0E71A46A446E0E700BF38B5074D7D
:101160000022044608462A6001F0D0FA431C00D051
:1011700038BD2B68002BFBD0236038BDC80600208B
:1011800038B50C46084D8446114620461A460023C1
:101190002B60644601F0D2FA431C00D038BD2B68A6
:1011A000002BFBD0236038BDC806002038B50C46A4
:1011B000084D8446114620461A4600232B6064469B
:1011C00001F0C4FA431C00D038BD2B68002BFBD0C3
:1011D000236038BDC806002038B50C46084D84464B
:1011E000114620461A4600232B60644601F0C4FADB
:1011F000431C00D038BD2B68002BFBD0236038BDCA
:10120000C806002070B50F4B0F4DAB42A3EB05068F
:1012100007D0B610002455F8043B01349847A64285
:10122000F9D801F0B1FA094D094B5E1BAB424FEA08
:10123000A60606D0002455F8043B01349847A64280
:10124000F9D870BDB8270008B8270008B8270008EB
:10125000C0270008704700BF704700BF704700BF3D
:10126000704700BF024B13B1024800F005B8704749
:1012700000000000CD210008002301461A46184650
:1012800000F0C6BF2DE9F84306460820894600F065
:10129000B1FFDFF89C800546304600F0FDFBD8F832
:1012A00008305F6827F00307A7F11104A4EB0904D5
:1012B0002C44B4FBF5F4013C05FB04F4A54208DC26
:1012C0000021304600F070FFD8F808303B449842C7
:1012D00005D0304600F0E6FB0020BDE8F88361420F
:1012E000304600F061FF01300FD0124AD8F80830C4
:1012F0003F1B47F001075F60136830461B1B1360FC
:1013000000F0D0FB0120BDE8F8830021304600F05A
:101310004BFFD8F80820831A0F2BDADD43F00103C6
:101320005360054B03491B68C01A0860D1E700BF32
:1013300068010020DC0600205C01002000297CD030
:10134000F8B50C46064600F0A7FB54F8043C764F6F
:10135000A4F1080523F001016818D7F808C0426815
:10136000844522F0030200F08380DB07426000EB3B
:10137000020C33D454F8084CDCF804302D1B214403
:10138000AC6807F1080C644503F0010364D0D5F89C
:101390000CE0C4F80CE0CEF80840002B00F081808F
:1013A00041F001036B600160B1F5007F22D27868E3
:1013B000CB080122490901338A40024357F8331010
:1013C0007A6007EBC302083AC5E9021247F83350C6
:1013D000CD603046BDE8F84000F064BBDCF8043076
:1013E000DB072BD541F00103B1F5007F44F8043C45
:1013F0000160DCD3B1F5206F4FEA512353D28B0942
:1014000003F1390003F13802C300F818FB5808381B
:10141000984203D161E09B68984204D05A6822F058
:1014200003028A42F7D8D868C5E902308560DD60DA
:101430003046BDE8F84000F035BB7047114407F175
:10144000080C836863453FD0C268DA60936041F05E
:1014500001036B606950A7E7002B5FD10A44D0E914
:101460000213CB60996042F001036B60AA50B0E7B1
:101470000A44D90707D454F8083CED1A1A44D5E9B0
:101480000213CB60996042F001036B60274BBD6093
:101490001B6893429DD8264B30461968FFF7F2FE31
:1014A00097E71144CDE7142B08D9542B1DD80B0B0B
:1014B00003F16F0003F16E02C300A6E703F15C00C5
:1014C00003F15B02C300A0E741F00103C7E9045543
:1014D000C5E902CC6B6069507BE779689210012402
:1014E00004FA02F20A437A609EE7B3F5AA7F06D8AF
:1014F000CB0B03F1780003F17702C30085E740F2DC
:101500005452934206D88B0C03F17D0003F17C0208
:10151000C3007AE74FF47E737E2276E741F0010341
:101520006B60016055E700BF68010020600100208A
:101530000C0700202DE9F04F01F10B05162D83B0AB
:10154000064623D8102900F2AF8000F0A5FA102536
:1015500018230220B74F3B44A3F108025C68944271
:1015600000F01F816368E268A16823F00303CA608A
:101570002344304691605A6842F001025A6000F0FC
:1015800091FA0834204603B0BDE8F08F35F0070526
:1015900000F18A80A94200F2878000F07DFAB5F55B
:1015A000FC7FC0F06E816B0A00F08280042B00F299
:1015B0001E81AB0903F1390003F1380EC3009D4FC2
:1015C0003B44A3F1080C5C68A44507D10DE0002A58
:1015D000E16880F2E0808C4507D00C46636823F018
:1015E00003035A1B0F2AF2DD7046DFF84C823C6978
:1015F000444500F0BD80636823F0030CACEB0503A9
:101600000F2B00F34281002BC7E9048880F22D8163
:10161000BCF5007FD7F804E080F0C9804FEADC0118
:1016200001314FEA5C1C012303FA0CF357F8312017
:10163000A2604EEA030E07EBC103083BE360C7F864
:1016400004E047F83140D46083104FF0010C0CFAED
:1016500003FCF44532D81CEA0E0F08D120F0030039
:101660004FEA4C0C1CEA0E0F00F10400F8D007EB17
:10167000C00AD6468146DEF80C300BE0596821F0EE
:1016800003014A1B0F2A1C46DB6800F3BC80002ABA
:1016900080F2DE809E45F1D109F1010919F0030FB6
:1016A0000EF1080EE7D119E10C233360002469E73D
:1016B0004FF4007340204FF03F0E80E7BC68636832
:1016C00023F00309A94503D3A9EB05030F2B52DC33
:1016D0005A4B1B68082003F1100804EB0903009320
:1016E00000F088FD564A13680133A844834605D0AC
:1016F00008F1FF388044434203EA08084146304677
:1017000000F052FDB0F1FF3F4D4A824600F0D88014
:1017100004EB0903834200F2D1804A4B186840442D
:101720000BF1FF311860844640F0FB801AEA010F8C
:1017300040F0F780D7F808A0C84448F00102CAF882
:101740000420414B1968814238BF18603F4B19682B
:10175000814238BF1860544622F00308A845A8EB20
:10176000050301D30F2B06DC304600F09BF99DE703
:10177000D7F804E068E7621943F0010345F001057A
:1017800065603046BA60536000F08CF9083420463A
:1017900003B0BDE8F08FA2682344D16030468A6070
:1017A000E9E6DC68A3427FF4DDAE02301DE7BCF55C
:1017B000206F4FEA5C227AD3142A00F2128102F1E0
:1017C0005C03DB005B32F918FB580839994203D1FE
:1017D000ECE09B68994204D05A6822F0030262450B
:1017E000F7D8D968C4E902318C60DC602CE7142B8F
:1017F00069D9542B00F2FE802B0B03F16F0003F12B
:101800006E0EC300DBE6D4F808C03046661945F01A
:1018100001056560CCF80C30C3F808C042F0010344
:10182000C7E90466C6E902887360625000F03AF9BD
:101830000834A7E668010020700100200C07002092
:101840005C010020DC0600200807002004070020BF
:10185000214430464A6842F001024A6054F8082F99
:10186000D3609A6000F01EF98CE6A4443046DCF8A0
:10187000043043F00103CCF8043000F013F90834CD
:1018800080E6E80805F1080364E6621943F0010107
:1018900045F0010565603046C7E90422C2E90288C7
:1018A000516044F80C3000F0FDF808346AE64FEA65
:1018B0009C1202F13903DB00383284E7BC4228D0A5
:1018C000BC68626848E703F15C0003F15B0EC3008B
:1018D00075E65AF80839534540F0DA8010F0030FE6
:1018E00000F1FF30F5D17B6823EA0C037B604FEAFF
:1018F0004C0C9C453FF6E2AEBCF1000F04D1DDE696
:101900004FEA4C0C09F104091CEA030FF8D04846D1
:10191000ADE6604B186808EB000C0BF1FF31C3F823
:1019200000C0106801306FD004EB0902AAEB02027C
:1019300062441A601AF00702CDE9002340D0C2F1D8
:1019400008029244D04408EA01005A44121A02EAFA
:10195000010B5946304600F027FC421C019B6FD01A
:10196000A0EB0A0000EB0B081868C7F808A048F0C5
:1019700001025844BC42CAF8042018603FF4E1AEAA
:10198000B9F10F0F43D96168A9F10C0222F00702E7
:1019900001F00101114361604FF0050CA1180F2AFD
:1019A000C1E901CC54D8DAF80420CAE692104FF00D
:1019B000010C0CFA02F24EEA020EC7F804E011E73D
:1019C0000AEB08020A40ABEB020202EA010B59469D
:1019D000304600F0E9FB431C019BC1D1DDF800B0AB
:1019E000C2E7542A17D84FEA1C3202F16F03DB001A
:1019F0006E32E8E6B3F5AA7F17D8EB0B03F1780057
:101A000003F1770EC300DAE5C2F800A092E70123E4
:101A1000CAF80430A8E6B2F5AA7F24D84FEADC322F
:101A200002F17803DB007732CDE640F25452934264
:101A300024D8AB0C03F17D0003F17C0EC300BEE59E
:101A4000009A083A9044A8EB0A084FF0000B8BE785
:101A5000304604F108010093FFF770FC009BD7F8B3
:101A600008A018689FE740F254539A420CD84FEAF6
:101A70009C4202F17D03DB007C32A4E64FF47E73CE
:101A80007F204FF07E0E9AE54FF47E737E229AE619
:101A90007B682CE7DC0600200148FFF7DFBB00BFB6
:101AA000CC0600200148FFF7DBBB00BFCC060020BE
:101AB00070B500293FD006460C4610B1436B002B91
:101AC0003CD0636EB4F90C20DD0732D4900538D5D4
:101AD0002146304600F04CF8E36A054633B1E1692F
:101AE000304698470028B8BF4FF0FF35A3891A0643
:101AF00039D4216B41B104F14003994202D0304600
:101B0000FFF71CFC00232363616C21B13046FFF713
:101B100015FC00236364FFF703FA636E0022DB0702
:101B2000A2811CD5A06DFFF797FBFFF7FFF92846B0
:101B300070BD002ACCD10025284670BDFFF7D2F930
:101B4000BFE7A06DFFF78AFBB4F90C30002BBFD1C3
:101B5000636ED907EFD4A06DFFF782FBEBE7A06DB2
:101B6000FFF77EFBDEE721693046FFF7E7FBC0E7C2
:101B7000B1F90C20F8B516070C46074649D4496858
:101B800042F400630029A3815FDDA56A002D3ED0E9
:101B9000002112F480523E683960E16961D101236D
:101BA0003846A847451C02466BD0B4F90C30A56AEC
:101BB000E169580705D56368D21A236B0BB1E36B53
:101BC000D21A00233846A847411C4CD13968B4F9D1
:101BD0000C301D293FD82F4ACA40D2073BD5226975
:101BE000226023F40062A281DD044FF000026260F3
:101BF00001D5002943D0216B3E6041B104F140037F
:101C0000994202D03846FFF799FB00232363002056
:101C1000F8BD0E69002EFAD00D680E6092070CBF59
:101C20004B690023AD1B8B600CE0D4F824C0E16944
:101C30002B4632463846E047B0F1000CA5EB0C05C8
:101C4000664406DD002DF0DCE1E7E16B00299CDC59
:101C5000DDE7B4F90C3043F04003A3814FF0FF30CF
:101C6000F8BD226DA5E7B4F90C302269226023F497
:101C70000062A281DB044FF000026260BBD52065E8
:101C8000B9E73B68002B90D01D2B01D0162BE0D17B
:101C90003E60BCE70100402038B50C46054608B15F
:101CA000436B03B3B4F90C0088B1636EDB0701D456
:101CB00081050FD528462146FFF75AFF636EDA07E4
:101CC000054602D4A3899B0508D5284638BD05469C
:101CD000284638BDA06DFFF7C1FAEBE7A06DFFF70E
:101CE000BFFA284638BDFFF7FDF8DBE79368002B05
:101CF00000F0F6802DE9F04FB1F90CC01CF0080F90
:101D000083B0904681460C4631D00B697BB31CF002
:101D10000207D8F8006038D00027D4F824B0E16971
:101D2000DFF8BCA23D4655452B463A4628BF5346F0
:101D30004846C5B1D847002840F3C880D8F80830D5
:101D40001B1A07442D1AC8F80830002B00F0B48085
:101D500055452B46D4F824B0E16928BF53463A468E
:101D60004846002DE6D1D6E900750836DBE7214666
:101D7000484600F037F9002840F0AD80B4F90CC0B7
:101D8000D8F800601CF00207C6D11CF0010A63D12C
:101D90002368A168574618468B46002F58D01CF47C
:101DA000007F00F0B180B9420A4600F2DD801CF4E9
:101DB000906F2FD0216962695D1A02EB420202EB3B
:101DC000D2726B1C52103B44934292BF93469B4687
:101DD0001A461CF4806F00F0E68011464846FFF773
:101DE000A9FB002800F0F5802A4621690190FEF742
:101DF00027FDA289019B22F4906242F08002A28119
:101E00005819ABEB0505C4F814B02361A560206038
:101E1000BB463A465146019200F046F9A168236854
:101E2000019AA1EB0B011A443D46A16022600027F4
:101E3000D8F808305B1BAA44C8F80830002B3BD008
:101E40002368A168B4F90CC018468B46002FA6D1B0
:101E5000D6E900A708369EE73846BB463D46002D2A
:101E600040D0002845D03A46D4E904C32068A16890
:101E7000AA4228BF2A46604504D901EB030A52450D
:101E800000F38280934272DCE169D4F824C05A46A0
:101E90004846E047B0F1000A18DDB7EB0A070FD05B
:101EA0000120D8F80830A3EB0A03D344A5EB0A05B8
:101EB000C8F80830002BD2D1002003B0BDE8F08F65
:101EC00021464846FFF7E8FE0028EAD0B4F90C3076
:101ED00043F04003A3814FF0FF3003B0BDE8F08F23
:101EE00000207047756833460836002DFAD0D3F8C5
:101EF00000B02A460A215846FEF752FC002865D059
:101F00000130A0EB0B07AEE722699A4214D3626955
:101F1000BA4211D86FF00043BB4228BF3B46656A06
:101F200093FBF2F3E16902FB03F348465246A847EC
:101F3000051ECBDD7F1B7BE7B94228BF39460D4626
:101F400018460A46514600F0AFF8A1682368491BBD
:101F50002B44A16023600029ECD121464846FFF7BD
:101F60009BFE0028E6D0B1E7BB463A4652E7594609
:101F7000019200F099F8019AA3689B1AA360236864
:101F800013442360924688E75946524600F08CF885
:101F900023685344236021464846FFF77DFE00280E
:101FA0003FF47BAF92E7484600F072F90346002801
:101FB0007FF426AF21694846FFF7C0F9B4F90C3029
:101FC0000C22C9F8002023F0800381E76A1C174621
:101FD0004AE70C22B4F90C30C9F8002078E700BFBA
:101FE00000FCFF7F38B52F4B1B6805460C4613B12C
:101FF0005A6B002A4BD0B4F90C3018071CD5226953
:1020000022B313F0010107D0616900204942A060AA
:10201000A1613AB1002038BD980758BF6169A1603D
:10202000002AF7D1190658BF1046F4D543F04003F3
:10203000A3814FF0FF3038BDD9062CD55A0712D4F2
:10204000226943F00803A381002ADAD103F4207146
:10205000B1F5007FD5D02146284600F0BBFAB4F98F
:102060000C302269CDE7216B51B104F1400291425D
:1020700004D02846FFF762F9B4F90C30002222633D
:1020800022690021C4E9002123F02403D9E718467E
:10209000FEF728FFAFE7092243F040032A60A3813F
:1020A000C7E700BF1000002088420ED98B1883427A
:1020B0000BD900EB020C002A6ED0624613F801CD5A
:1020C00002F801CD9942F9D170470F2A0FD8034683
:1020D00002F1FF3C002A5FD00CF1010C013B8C4463
:1020E00011F8012B03F8012F6145F9D1704740EA3F
:1020F00001039B0751D1A2F1100370B501F1200C2F
:1021000023F00F0501F1100E00F11004AC441B097F
:102110005EF8105C44F8105C5EF80C5C44F80C5CF3
:102120005EF8085C44F8085C5EF8045C44F8045C03
:102130000EF1100EE64504F11004E9D1013312F05E
:102140000C0F01EB031102F00F0400EB031328D076
:10215000043C24F003064FEA940C1E441C1F8E46D8
:102160005EF8045B44F8045FB442F9D10CF1010459
:1021700002F0030203EB840301EB840102F1FF3C54
:102180004AB10CF1010C013B8C4411F8012B03F80E
:10219000012F6145F9D170BD704702F1FF3C034644
:1021A0009AE72246EAE700BF38B5074D0022044609
:1021B00008462A6000F0D2FA431C00D038BD2B68D4
:1021C000002BFBD0236038BDC806002038B5074D72
:1021D000074C2C1BA41005D0013C55F8043D984732
:1021E000002CF9D1BDE8384000F0D4BAC42700086B
:1021F000C0270008082802D14FF48050704708B566
:1022000000F07EFA162303604FF0FF3008BD00BFD8
:102210002DE9F8431B4D0646286898460F4691461F
:10222000FFF71CF8184B1C681CB3286865681F2D45
:1022300022DC4EB96B1C0235636044F82570FFF751
:102240000FF80020BDE8F88304EB85010123C1F8F5
:102250008890D4F88821AB401A43022EC4F8882114
:10226000C1F80881E6D1D4F88C211A43C4F88C2136
:10227000E0E7064C1C60D8E7FEF7F2FF4FF0FF30B6
:10228000E0E700BF58010020D8060020100700201A
:102290002DE9F84F1646002900F096800C4680463E
:1022A00006F10B05FFF7F8FB54F8041C162DA4F1FA
:1022B000080921F0030758D81025AE4258D8AF427C
:1022C00060DABE4B9A6809EB070C6245DCF8040043
:1022D00000F0908020F0010363445B68DB0768D462
:1022E00020F003003B189D4247DDCB0712D454F881
:1022F000083CA9EB030BDBF8043023F00302104485
:1023000000EB070A554540F3F68007EB020A5545F6
:1023100040F3CC8031464046FFF70CF906460028D2
:1023200000F0208154F8043C23F001034B44A0F159
:102330000802934200F0B4803A1F242A00F2D780AA
:10234000132A00F2A28003462246116819605168E0
:10235000596092689A6021464046FEF7EFFF40467A
:10236000FFF7A0FB3046BDE8F88F35F00705A4D590
:102370000C23C8F80030002618E01F46DCE90223D1
:10238000D3609A60D9F804307A1B0F2A03F0010356
:1023900009EB07001DD83B43C9F80430436843F0FC
:1023A000010343604046FFF77DFB26463046BDE80B
:1023B000F88FC907AED454F8083CA9EB030BDBF83F
:1023C000043023F00302A0E7BDE8F84F1146FFF701
:1023D000B1B809EB05012B4342F00102C9F8043002
:1023E0004A60436843F00103436008314046FEF70A
:1023F000A5FFD7E720F00300C21905F1100C6245D4
:1024000080F29180CA0785D454F8082CA9EB020BFE
:10241000DBF8042022F00302104400EB070AD44545
:102420003FF773AF5E46DBF80C1056F8080F3A1F03
:10243000242AC160886000F2AE80132A40F2A9808D
:102440002168CBF808106168CBF80C101B2A00F249
:10245000A88008340BF11002216811606168516096
:10246000A16891600BEB0501AAEB050242F00102A5
:1024700099604A60DBF8043003F001032B434046C7
:10248000CBF80430FFF70EFB90E723680360636826
:1024900043601B2A3CD804F1080200F1080354E70A
:1024A00050F8043C23F003031F446BE73A1F5E46D9
:1024B000DBF80C3056F8081F242ACB60996022D82C
:1024C000132A1ED92368CBF808306368CBF80C3088
:1024D0001B2A3BD808340BF1100322681A6062688B
:1024E0005A60A2689A6034465746D9464AE7214660
:1024F000FFF7DAFD2FE7DCE902133A1FCB609960A2
:10250000D5E73346E9E721463046FFF7CDFDEAE758
:10251000A3688360E368C360242A27D004F1100213
:1025200000F1100311E709EB05019960531B43F01B
:1025300001034B6054F8043C03F001032B43404675
:1025400044F8043CFFF7AEFA26462FE7A368CBF821
:102550001030E368CBF81430242A10D010340BF17B
:102560001803BAE74046FFF79DFA04E723690361C1
:102570006169416104F1180200F11803E5E623697D
:10258000CBF818306369CBF81C3018340BF12003FA
:10259000A3E7324660E721463046FFF785FD074B4B
:1025A00060E7A168CBF81010E168CBF81410242A7A
:1025B00006D010340BF118024EE700BF680100206E
:1025C0002269CBF818206269CBF81C2018340BF173
:1025D000200241E72DE9F041B1F90C300C46990792
:1025E00096B008D504F143030122C4E90432236004
:1025F00016B0BDE8F081B4F90E100029064626DBBE
:102600006A4600F055F800281FDB019D05F470456F
:10261000A5F50055B5FA85F54FF480686D094FF4BE
:10262000006741463046FEF785FFE8B1B4F90C304B
:10263000C4F8148043F0800320602061A3813DBB77
:102640003B43A38116B0BDE8F081B4F90C3013F020
:10265000800519D04FF040080025414630462F46EE
:10266000FEF768FF0028E1D1B4F90C309A05BFD419
:1026700023F0030304F1430243F002030121C4E900
:102680000421A3812260B3E74FF480682F46C8E796
:10269000B4F90E10304600F021F810B9B4F90C303E
:1026A000CEE7A38923F0030343F001031BB2C7E77E
:1026B00070B50C46084D03460026204611461C46C0
:1026C0002E6000F02BF8431C00D070BD2B68002B4F
:1026D000FBD0236070BD00BFC806002038B5074D91
:1026E0000022044608462A6000F020F8431C00D06F
:1026F00038BD2B68002BFBD0236038BDC8060020F6
:10270000014B1868704700BF10000020024B582290
:102710001A604FF0FF307047C8060020024B582265
:102720001A604FF0FF307047C8060020024B582255
:102730001A600020704700BFC8060020024B5822D4
:102740001A604FF0FF307047C8060020024B582235
:102750001A604FF0FF307047C8060020044A054950
:102760001368002B08BF0B461844106018467047CA
:10277000A0080020A8080020024B58221A604FF041
:10278000FF307047C8060020F8B500BFF8BC08BC91
:102790009E467047F8B500BFF8BC08BC9E4670471F
:1027A00048656C6C6F20576F726C64000A00000003
:0827B00010DFFF7F01000000B3
:0827B80065120008DD090008AC
:0427C000B50900084F
:1027C4000095BA0A00000000030000008C050020F8
:1027D4001800002000000000000000008C0500200C
:1027E400F40500205C06002000000000000000004A
:1027F40000000000000000000000000000000000D5
:1028040000000000000000000000000000000000C4
:1028140000000000000000000000000000000000B4
:1028240000000000000000000000000000000000A4
:102834000000000000000000000000000000000094
:102844000000000000000000000000000000000084
:102854000000000000000000000000000000000074
:102864000000000000000000000000000000000064
:1028740001000000000000000E33CDAB34126DE601
:10288400ECDE05000B00000000000000000000006A
:102894000000000000000000000000000000000034
:1028A4000000000000000000000000000000000024
:1028B4000000000000000000000000000000000014
:1028C4000000000000000000000000000000000004
:1028D40000000000000000000000000000000000F4
:1028E40000000000000000000000000000000000E4
:1028F40000000000000000000000000000000000D4
:1029040000000000000000000000000000000000C3
:102914000000000000000000D0060020FFFFFFFFC1
:1029240000000200000000000000000000000000A1
:10293400680100206801002070010020700100205F
:10294400780100207801002080010020800100200F
:1029540088010020880100209001002090010020BF
:102964009801002098010020A0010020A00100206F
:10297400A8010020A8010020B0010020B00100201F
:10298400B8010020B8010020C0010020C0010020CF
:10299400C8010020C8010020D0010020D00100207F
:1029A400D8010020D8010020E0010020E00100202F
:1029B400E8010020E8010020F0010020F0010020DF
:1029C400F8010020F801002000020020000200208D
:1029D400080200200802002010020020100200203B
:1029E40018020020180200202002002020020020EB
:1029F400280200202802002030020020300200209B
:102A0400380200203802002040020020400200204A
:102A140048020020480200205002002050020020FA
:102A240058020020580200206002002060020020AA
:102A3400680200206802002070020020700200205A
:102A4400780200207802002080020020800200200A
:102A540088020020880200209002002090020020BA
:102A64009802002098020020A0020020A00200206A
:102A7400A8020020A8020020B0020020B00200201A
:102A8400B8020020B8020020C0020020C0020020CA
:102A9400C8020020C8020020D0020020D00200207A
:102AA400D8020020D8020020E0020020E00200202A
:102AB400E8020020E8020020F0020020F0020020DA
:102AC400F8020020F8020020000300200003002088
:102AD4000803002008030020100300201003002036
:102AE40018030020180300202003002020030020E6
:102AF4002803002028030020300300203003002096
:102B04003803002038030020400300204003002045
:102B140048030020480300205003002050030020F5
:102B240058030020580300206003002060030020A5
:102B34006803002068030020700300207003002055
:102B44007803002078030020800300208003002005
:102B540088030020880300209003002090030020B5
:102B64009803002098030020A0030020A003002065
:102B7400A8030020A8030020B0030020B003002015
:102B8400B8030020B8030020C0030020C0030020C5
:102B9400C8030020C8030020D0030020D003002075
:102BA400D8030020D8030020E0030020E003002025
:102BB400E8030020E8030020F0030020F0030020D5
:102BC400F8030020F8030020000400200004002083
:102BD4000804002008040020100400201004002031
:102BE40018040020180400202004002020040020E1
:102BF4002804002028040020300400203004002091
:102C04003804002038040020400400204004002040
:102C140048040020480400205004002050040020F0
:102C240058040020580400206004002060040020A0
:102C34006804002068040020700400207004002050
:102C44007804002078040020800400208004002000
:102C540088040020880400209004002090040020B0
:102C64009804002098040020A0040020A004002060
:102C7400A8040020A8040020B0040020B004002010
:102C8400B8040020B8040020C0040020C0040020C0
:102C9400C8040020C8040020D0040020D004002070
:102CA400D8040020D8040020E0040020E004002020
:102CB400E8040020E8040020F0040020F0040020D0
:102CC400F8040020F804002000050020000500207E
:102CD400080500200805002010050020100500202C
:102CE40018050020180500202005002020050020DC
:102CF400280500202805002030050020300500208C
:102D0400380500203805002040050020400500203B
:102D140048050020480500205005002050050020EB
:102D2400580500205805002060050020600500209B
:0400000508000A1DC8
:00000001FF
